{
  "_format": "hh-sol-artifact-1",
  "contractName": "Maintainer",
  "sourceName": "contracts/Maintainer.sol",
  "abi": [
    {
      "anonymous": false,
      "inputs": [
        {
          "indexed": false,
          "internalType": "uint8",
          "name": "version",
          "type": "uint8"
        }
      ],
      "name": "Initialized",
      "type": "event"
    },
    {
      "anonymous": false,
      "inputs": [
        {
          "indexed": true,
          "internalType": "address",
          "name": "previousOwner",
          "type": "address"
        },
        {
          "indexed": true,
          "internalType": "address",
          "name": "newOwner",
          "type": "address"
        }
      ],
      "name": "OwnershipTransferred",
      "type": "event"
    },
    {
      "anonymous": false,
      "inputs": [
        {
          "indexed": false,
          "internalType": "address[]",
          "name": "_validators",
          "type": "address[]"
        },
        {
          "indexed": false,
          "internalType": "uint8",
          "name": "_multisigThreshold",
          "type": "uint8"
        }
      ],
      "name": "validatorChanged",
      "type": "event"
    },
    {
      "inputs": [],
      "name": "CHANGE_VALIDATORS_TYPEHASH",
      "outputs": [
        {
          "internalType": "bytes32",
          "name": "",
          "type": "bytes32"
        }
      ],
      "stateMutability": "view",
      "type": "function"
    },
    {
      "inputs": [],
      "name": "DOMAIN_SEPARATOR",
      "outputs": [
        {
          "internalType": "bytes32",
          "name": "",
          "type": "bytes32"
        }
      ],
      "stateMutability": "view",
      "type": "function"
    },
    {
      "inputs": [],
      "name": "MIN_VALIDATOR_SIZE",
      "outputs": [
        {
          "internalType": "uint256",
          "name": "",
          "type": "uint256"
        }
      ],
      "stateMutability": "view",
      "type": "function"
    },
    {
      "inputs": [],
      "name": "NAME_712",
      "outputs": [
        {
          "internalType": "string",
          "name": "",
          "type": "string"
        }
      ],
      "stateMutability": "view",
      "type": "function"
    },
    {
      "inputs": [],
      "name": "SIGNATURE_SIZE",
      "outputs": [
        {
          "internalType": "uint256",
          "name": "",
          "type": "uint256"
        }
      ],
      "stateMutability": "view",
      "type": "function"
    },
    {
      "inputs": [],
      "name": "VALIDATORS_SIZE_LIMIT",
      "outputs": [
        {
          "internalType": "uint256",
          "name": "",
          "type": "uint256"
        }
      ],
      "stateMutability": "view",
      "type": "function"
    },
    {
      "inputs": [
        {
          "internalType": "address[]",
          "name": "validators",
          "type": "address[]"
        },
        {
          "internalType": "uint8",
          "name": "multisigThreshold",
          "type": "uint8"
        },
        {
          "internalType": "uint256",
          "name": "nonce",
          "type": "uint256"
        },
        {
          "internalType": "bytes",
          "name": "signatures",
          "type": "bytes"
        }
      ],
      "name": "changeValidators",
      "outputs": [],
      "stateMutability": "nonpayable",
      "type": "function"
    },
    {
      "inputs": [
        {
          "internalType": "address[]",
          "name": "validators",
          "type": "address[]"
        },
        {
          "internalType": "uint8",
          "name": "multisigThreshold",
          "type": "uint8"
        }
      ],
      "name": "initialize",
      "outputs": [],
      "stateMutability": "nonpayable",
      "type": "function"
    },
    {
      "inputs": [],
      "name": "latestChangeValidatorsNonce_",
      "outputs": [
        {
          "internalType": "uint256",
          "name": "",
          "type": "uint256"
        }
      ],
      "stateMutability": "view",
      "type": "function"
    },
    {
      "inputs": [],
      "name": "multisigThreshold_",
      "outputs": [
        {
          "internalType": "uint8",
          "name": "",
          "type": "uint8"
        }
      ],
      "stateMutability": "view",
      "type": "function"
    },
    {
      "inputs": [],
      "name": "owner",
      "outputs": [
        {
          "internalType": "address",
          "name": "",
          "type": "address"
        }
      ],
      "stateMutability": "view",
      "type": "function"
    },
    {
      "inputs": [],
      "name": "renounceOwnership",
      "outputs": [],
      "stateMutability": "nonpayable",
      "type": "function"
    },
    {
      "inputs": [
        {
          "internalType": "address",
          "name": "newOwner",
          "type": "address"
        }
      ],
      "name": "transferOwnership",
      "outputs": [],
      "stateMutability": "nonpayable",
      "type": "function"
    },
    {
      "inputs": [
        {
          "internalType": "bytes32",
          "name": "msgHash",
          "type": "bytes32"
        },
        {
          "internalType": "bytes",
          "name": "signatures",
          "type": "bytes"
        }
      ],
      "name": "validatorsApprove",
      "outputs": [
        {
          "internalType": "uint256[]",
          "name": "",
          "type": "uint256[]"
        }
      ],
      "stateMutability": "view",
      "type": "function"
    },
    {
      "inputs": [
        {
          "internalType": "uint256",
          "name": "",
          "type": "uint256"
        }
      ],
      "name": "validators_",
      "outputs": [
        {
          "internalType": "address",
          "name": "",
          "type": "address"
        }
      ],
      "stateMutability": "view",
      "type": "function"
    }
  ],
  "bytecode": "0x608060405234801561001057600080fd5b50611824806100206000396000f3fe608060405234801561001057600080fd5b50600436106100f45760003560e01c8063384c4cf51161009757806398b314661161006657806398b31466146101ca578063a6c03437146101dd578063f2fde38b146101fc578063fd4e17aa1461020f57600080fd5b8063384c4cf51461017d5780634592329b146101a8578063715018a6146101b15780638da5cb5b146101b957600080fd5b80632bbdea4e116100d35780632bbdea4e1461014e5780632da5351c14610163578063308ff0c91461016c5780633644e5151461017557600080fd5b80622f5df5146100f95780630a3665da146101225780632187e8f914610139575b600080fd5b61010c61010736600461119e565b610218565b60405161011991906111e5565b60405180910390f35b61012b60675481565b604051908152602001610119565b610141610588565b6040516101199190611229565b61016161015c366004611332565b610616565b005b61012b60665481565b61012b60655481565b61012b61098c565b61019061018b366004611380565b61099b565b6040516001600160a01b039091168152602001610119565b61012b60715481565b6101616109c5565b6033546001600160a01b0316610190565b6101616101d8366004611399565b6109d9565b6069546101ea9060ff1681565b60405160ff9091168152602001610119565b61016161020a366004611417565b610c7a565b61012b606b5481565b606060655482516102299190611448565b156102705760405162461bcd60e51b8152602060048201526012602482015271696e76616c6964207369676e61747572657360701b60448201526064015b60405180910390fd5b606954606554835160ff9092169160009161028a91611472565b9050818110156102f55760405162461bcd60e51b815260206004820152603060248201527f6c656e677468206f66207369676e617475726573206d7573742067726561746560448201526f1c881d1a185b881d1a1c995cda1bdb1960821b6064820152608401610267565b6000806000806000806000606a8054905067ffffffffffffffff81111561031e5761031e6110e7565b604051908082528060200260200182016040528015610347578160200160208202803683370190505b50905060008867ffffffffffffffff811115610365576103656110e7565b60405190808252806020026020018201604052801561038e578160200160208202803683370190505b50905060005b89881015610525576103a68d89610cf3565b91985096509450876103b781611486565b98505060018e888888604051600081526020016040526040516103f6949392919093845260ff9290921660208401526040830152606082015260800190565b6020604051602081039080840390855afa158015610418573d6000803e3d6000fd5b5050604051601f1901519450506001600160a01b03841661046f5760405162461bcd60e51b8152602060048201526011602482015270696e76616c6964207369676e617475726560781b6044820152606401610267565b61047884610da1565b606a54909150811015806104a25750828181518110610499576104996114a1565b60200260200101515b156104ac57610394565b60018382815181106104c0576104c06114a1565b91151560209283029190910190910152886104da81611486565b9950819050826104eb60018b6114b7565b815181106104fb576104fb6114a1565b6020026020010181815250508a89106105205750995061058298505050505050505050565b610394565b8a8910156105755760405162461bcd60e51b815260206004820152601760248201527f7369676e617475726573206e6f742076657269666965640000000000000000006044820152606401610267565b5099505050505050505050505b92915050565b60688054610595906114ce565b80601f01602080910402602001604051908101604052809291908181526020018280546105c1906114ce565b801561060e5780601f106105e35761010080835404028352916020019161060e565b820191906000526020600020905b8154815290600101906020018083116105f157829003601f168201915b505050505081565b600054610100900460ff16158080156106365750600054600160ff909116105b806106505750303b158015610650575060005460ff166001145b6106b35760405162461bcd60e51b815260206004820152602e60248201527f496e697469616c697a61626c653a20636f6e747261637420697320616c72656160448201526d191e481a5b9a5d1a585b1a5e995960921b6064820152608401610267565b6000805460ff1916600117905580156106d6576000805461ff0019166101001790555b6041606555611388606655600360675560408051808201909152600e8082526d2a32b09026b0b4b73a30b4b732b960911b602090920191825261071b91606891610ff9565b507f1d67c1fa3f9d6b80f0599d303ffad35c634615c72d95e2a13600b856f2a409e7606b5560405160009061075290606890611509565b6040805191829003822082820190915260018252603160f81b602090920191909152606e8190557fc89efdaa54c0f20c7adf612882df0950f5a951637e0307cdcb4c672f298b8bc6606f8190559091507f8b73c3c69bb8fe3d512ecc4cf759cc79239f7b179b0ffacaa9a75d522b39400f46606d556107d2818484610e09565b606c556070819055855161081e5760405162461bcd60e51b815260206004820152601360248201527276616c696461746f727320617265206e6f6e6560681b6044820152606401610267565b60008560ff16116108415760405162461bcd60e51b8152600401610267906115a5565b606654865111156108645760405162461bcd60e51b8152600401610267906115dc565b606754865110156108875760405162461bcd60e51b815260040161026790611622565b61089386516002610e53565b8560ff1610156108b55760405162461bcd60e51b815260040161026790611664565b85516108c890606a90602089019061107d565b5085518560ff1611156108ed5760405162461bcd60e51b8152600401610267906115a5565b6069805460ff191660ff87161790556040517f32cb5888262c3ec76b6cdb225e9c564a05bd6ecb592a6184f05e82cfb0d9e0d19061092e90889088906116a6565b60405180910390a161093e610e66565b5050508015610987576000805461ff0019169055604051600181527f7f26b83ff96e1f2b6a682f133852f6798a09c465da95921460cefb38474024989060200160405180910390a15b505050565b6000610996610e95565b905090565b606a81815481106109ab57600080fd5b6000918252602090912001546001600160a01b0316905081565b6109cd610ebf565b6109d76000610f19565b565b6109e1610ebf565b6071548214610a325760405162461bcd60e51b815260206004820152601e60248201527f6368616e676556616c696461746f7273206e6f6e636520696e76616c696400006044820152606401610267565b610a3d826001610f6b565b6071558351610a845760405162461bcd60e51b815260206004820152601360248201527276616c696461746f727320617265206e6f6e6560681b6044820152606401610267565b60008360ff1611610aa75760405162461bcd60e51b8152600401610267906115a5565b60665484511115610aca5760405162461bcd60e51b8152600401610267906115dc565b60675484511015610aed5760405162461bcd60e51b815260040161026790611622565b83518360ff161115610b115760405162461bcd60e51b8152600401610267906115a5565b610b1d84516002610e53565b8360ff161015610b3f5760405162461bcd60e51b815260040161026790611664565b60005b8451811015610c13576000610b588260016116fd565b90505b8551811015610c0057858181518110610b7657610b766114a1565b60200260200101516001600160a01b0316868381518110610b9957610b996114a1565b60200260200101516001600160a01b03161415610bee5760405162461bcd60e51b815260206004820152601360248201527272657065617465642076616c696461746f727360681b6044820152606401610267565b80610bf881611486565b915050610b5b565b5080610c0b81611486565b915050610b42565b508351610c2790606a90602087019061107d565b506069805460ff191660ff85169081179091556040517f32cb5888262c3ec76b6cdb225e9c564a05bd6ecb592a6184f05e82cfb0d9e0d191610c6c91606a9190611715565b60405180910390a150505050565b610c82610ebf565b6001600160a01b038116610ce75760405162461bcd60e51b815260206004820152602660248201527f4f776e61626c653a206e6577206f776e657220697320746865207a65726f206160448201526564647265737360d01b6064820152608401610267565b610cf081610f19565b50565b6000808080610d0385604161175f565b8681016020810151604082015160419092015160ff169650945092509050601b841015610d3857610d35601b8561177e565b93505b8360ff16601b1480610d4d57508360ff16601c145b610d995760405162461bcd60e51b815260206004820152601f60248201527f696e76616c69642076206f66207369676e617475726528722c20732c207629006044820152606401610267565b509250925092565b6000805b606a54811015610dff57826001600160a01b0316606a8281548110610dcc57610dcc6114a1565b6000918252602090912001546001600160a01b03161415610ded5792915050565b80610df781611486565b915050610da5565b5050606a54919050565b600083838346604080516020810195909552840192909252606083015260808201523060a082015260c0016040516020818303038152906040528051906020012090509392505050565b6000610e5f8284611472565b9392505050565b600054610100900460ff16610e8d5760405162461bcd60e51b8152600401610267906117a3565b6109d7610fc9565b6000606d54610ea14690565b1415610eae5750606c5490565b610996607054606e54606f54610e09565b6033546001600160a01b031633146109d75760405162461bcd60e51b815260206004820181905260248201527f4f776e61626c653a2063616c6c6572206973206e6f7420746865206f776e65726044820152606401610267565b603380546001600160a01b038381166001600160a01b0319831681179093556040519116919082907f8be0079c531659141344cd1fd0a4f28419497f9722a3daafe3b4186f6b6457e090600090a35050565b6000610f7782846116fd565b9050828110156105825760405162461bcd60e51b815260206004820152601960248201527f4f766572666c6f7720647572696e67206164646974696f6e2e000000000000006044820152606401610267565b600054610100900460ff16610ff05760405162461bcd60e51b8152600401610267906117a3565b6109d733610f19565b828054611005906114ce565b90600052602060002090601f016020900481019282611027576000855561106d565b82601f1061104057805160ff191683800117855561106d565b8280016001018555821561106d579182015b8281111561106d578251825591602001919060010190611052565b506110799291506110d2565b5090565b82805482825590600052602060002090810192821561106d579160200282015b8281111561106d57825182546001600160a01b0319166001600160a01b0390911617825560209092019160019091019061109d565b5b8082111561107957600081556001016110d3565b634e487b7160e01b600052604160045260246000fd5b604051601f8201601f1916810167ffffffffffffffff81118282101715611126576111266110e7565b604052919050565b600082601f83011261113f57600080fd5b813567ffffffffffffffff811115611159576111596110e7565b61116c601f8201601f19166020016110fd565b81815284602083860101111561118157600080fd5b816020850160208301376000918101602001919091529392505050565b600080604083850312156111b157600080fd5b82359150602083013567ffffffffffffffff8111156111cf57600080fd5b6111db8582860161112e565b9150509250929050565b6020808252825182820181905260009190848201906040850190845b8181101561121d57835183529284019291840191600101611201565b50909695505050505050565b600060208083528351808285015260005b818110156112565785810183015185820160400152820161123a565b81811115611268576000604083870101525b50601f01601f1916929092016040019392505050565b80356001600160a01b038116811461129557600080fd5b919050565b600082601f8301126112ab57600080fd5b8135602067ffffffffffffffff8211156112c7576112c76110e7565b8160051b6112d68282016110fd565b92835284810182019282810190878511156112f057600080fd5b83870192505b84831015611316576113078361127e565b825291830191908301906112f6565b979650505050505050565b803560ff8116811461129557600080fd5b6000806040838503121561134557600080fd5b823567ffffffffffffffff81111561135c57600080fd5b6113688582860161129a565b92505061137760208401611321565b90509250929050565b60006020828403121561139257600080fd5b5035919050565b600080600080608085870312156113af57600080fd5b843567ffffffffffffffff808211156113c757600080fd5b6113d38883890161129a565b95506113e160208801611321565b94506040870135935060608701359150808211156113fe57600080fd5b5061140b8782880161112e565b91505092959194509250565b60006020828403121561142957600080fd5b610e5f8261127e565b634e487b7160e01b600052601260045260246000fd5b60008261145757611457611432565b500690565b634e487b7160e01b600052601160045260246000fd5b60008261148157611481611432565b500490565b600060001982141561149a5761149a61145c565b5060010190565b634e487b7160e01b600052603260045260246000fd5b6000828210156114c9576114c961145c565b500390565b600181811c908216806114e257607f821691505b6020821081141561150357634e487b7160e01b600052602260045260246000fd5b50919050565b600080835481600182811c91508083168061152557607f831692505b602080841082141561154557634e487b7160e01b86526022600452602486fd5b818015611559576001811461156a57611597565b60ff19861689528489019650611597565b60008a81526020902060005b8681101561158f5781548b820152908501908301611576565b505084890196505b509498975050505050505050565b60208082526019908201527f696e76616c6964206d756c74697369675468726573686f6c6400000000000000604082015260600190565b60208082526026908201527f6e756d626572206f662076616c696461746f7273206578636565647320746865604082015265081b1a5b5a5d60d21b606082015260800190565b60208082526022908201527f6e756d626572206f662076616c696461746f7273206973206e6f7420656e6f756040820152610ced60f31b606082015260800190565b60208082526022908201527f6d756c74697369675468726573686f6c64206973206c657373207468616e2035604082015261302560f01b606082015260800190565b604080825283519082018190526000906020906060840190828701845b828110156116e85781516001600160a01b0316845292840192908401906001016116c3565b50505060ff9490941692019190915250919050565b600082198211156117105761171061145c565b500190565b6000604082016040835280855480835260608501915086600052602092508260002060005b828110156116e85781546001600160a01b03168452928401926001918201910161173a565b60008160001904831182151516156117795761177961145c565b500290565b600060ff821660ff84168060ff0382111561179b5761179b61145c565b019392505050565b6020808252602b908201527f496e697469616c697a61626c653a20636f6e7472616374206973206e6f74206960408201526a6e697469616c697a696e6760a81b60608201526080019056fea26469706673582212207ca5062012a7da67d637202765694927b1e26681965320b52977ae1f923c4bd764736f6c634300080b0033",
  "linkReferences": {},
  "deployedLinkReferences": {}
}